{
    "address": "0xDc64a140Aa3E981100a9becA4E685f962f0cF6C9",
    "abi": [
        {
            "inputs": [],
            "stateMutability": "nonpayable",
            "type": "constructor"
        },
        {
            "anonymous": false,
            "inputs": [
                {
                    "indexed": true,
                    "internalType": "address",
                    "name": "donor",
                    "type": "address"
                },
                {
                    "indexed": true,
                    "internalType": "uint256",
                    "name": "projectId",
                    "type": "uint256"
                },
                {
                    "indexed": false,
                    "internalType": "uint256",
                    "name": "amount",
                    "type": "uint256"
                },
                {
                    "indexed": false,
                    "internalType": "string",
                    "name": "currency",
                    "type": "string"
                }
            ],
            "name": "DonationMade",
            "type": "event"
        },
        {
            "anonymous": false,
            "inputs": [
                {
                    "indexed": true,
                    "internalType": "address",
                    "name": "previousOwner",
                    "type": "address"
                },
                {
                    "indexed": true,
                    "internalType": "address",
                    "name": "newOwner",
                    "type": "address"
                }
            ],
            "name": "OwnershipTransferred",
            "type": "event"
        },
        {
            "anonymous": false,
            "inputs": [
                {
                    "indexed": false,
                    "internalType": "address",
                    "name": "account",
                    "type": "address"
                }
            ],
            "name": "Paused",
            "type": "event"
        },
        {
            "anonymous": false,
            "inputs": [
                {
                    "indexed": true,
                    "internalType": "uint256",
                    "name": "projectId",
                    "type": "uint256"
                },
                {
                    "indexed": false,
                    "internalType": "string",
                    "name": "name",
                    "type": "string"
                },
                {
                    "indexed": false,
                    "internalType": "enum ProjectCategory",
                    "name": "category",
                    "type": "uint8"
                }
            ],
            "name": "ProjectAdded",
            "type": "event"
        },
        {
            "anonymous": false,
            "inputs": [
                {
                    "indexed": true,
                    "internalType": "uint256",
                    "name": "projectId",
                    "type": "uint256"
                }
            ],
            "name": "ProjectRemoved",
            "type": "event"
        },
        {
            "anonymous": false,
            "inputs": [
                {
                    "indexed": false,
                    "internalType": "uint256",
                    "name": "newFeePercentage",
                    "type": "uint256"
                }
            ],
            "name": "ServiceFeeAdjusted",
            "type": "event"
        },
        {
            "anonymous": false,
            "inputs": [
                {
                    "indexed": true,
                    "internalType": "address",
                    "name": "tokenAddress",
                    "type": "address"
                }
            ],
            "name": "TokenAdded",
            "type": "event"
        },
        {
            "anonymous": false,
            "inputs": [
                {
                    "indexed": true,
                    "internalType": "address",
                    "name": "donor",
                    "type": "address"
                },
                {
                    "indexed": true,
                    "internalType": "uint256",
                    "name": "projectId",
                    "type": "uint256"
                },
                {
                    "indexed": true,
                    "internalType": "address",
                    "name": "tokenAddress",
                    "type": "address"
                },
                {
                    "indexed": false,
                    "internalType": "uint256",
                    "name": "amount",
                    "type": "uint256"
                }
            ],
            "name": "TokenDonationMade",
            "type": "event"
        },
        {
            "anonymous": false,
            "inputs": [
                {
                    "indexed": true,
                    "internalType": "address",
                    "name": "tokenAddress",
                    "type": "address"
                }
            ],
            "name": "TokenRemoved",
            "type": "event"
        },
        {
            "anonymous": false,
            "inputs": [
                {
                    "indexed": false,
                    "internalType": "address",
                    "name": "account",
                    "type": "address"
                }
            ],
            "name": "Unpaused",
            "type": "event"
        },
        {
            "inputs": [
                {
                    "internalType": "address",
                    "name": "tokenAddress",
                    "type": "address"
                }
            ],
            "name": "addSupportedToken",
            "outputs": [],
            "stateMutability": "nonpayable",
            "type": "function"
        },
        {
            "inputs": [
                {
                    "internalType": "uint256",
                    "name": "newFeePercentage",
                    "type": "uint256"
                }
            ],
            "name": "adjustServiceFee",
            "outputs": [],
            "stateMutability": "nonpayable",
            "type": "function"
        },
        {
            "inputs": [
                {
                    "internalType": "uint256",
                    "name": "projectId",
                    "type": "uint256"
                }
            ],
            "name": "donateDFI",
            "outputs": [],
            "stateMutability": "payable",
            "type": "function"
        },
        {
            "inputs": [],
            "name": "donateDFIToAllProjects",
            "outputs": [],
            "stateMutability": "payable",
            "type": "function"
        },
        {
            "inputs": [
                {
                    "internalType": "enum ProjectCategory",
                    "name": "category",
                    "type": "uint8"
                }
            ],
            "name": "donateDFIToCategory",
            "outputs": [],
            "stateMutability": "payable",
            "type": "function"
        },
        {
            "inputs": [
                {
                    "internalType": "address",
                    "name": "tokenAddress",
                    "type": "address"
                },
                {
                    "internalType": "uint256",
                    "name": "amount",
                    "type": "uint256"
                }
            ],
            "name": "donateTokensToAllProjects",
            "outputs": [],
            "stateMutability": "nonpayable",
            "type": "function"
        },
        {
            "inputs": [
                {
                    "internalType": "enum ProjectCategory",
                    "name": "category",
                    "type": "uint8"
                },
                {
                    "internalType": "address",
                    "name": "tokenAddress",
                    "type": "address"
                },
                {
                    "internalType": "uint256",
                    "name": "amount",
                    "type": "uint256"
                }
            ],
            "name": "donateTokensToCategory",
            "outputs": [],
            "stateMutability": "nonpayable",
            "type": "function"
        },
        {
            "inputs": [
                {
                    "internalType": "uint256",
                    "name": "projectId",
                    "type": "uint256"
                },
                {
                    "internalType": "address",
                    "name": "tokenAddress",
                    "type": "address"
                },
                {
                    "internalType": "uint256",
                    "name": "amount",
                    "type": "uint256"
                }
            ],
            "name": "donateWithToken",
            "outputs": [],
            "stateMutability": "nonpayable",
            "type": "function"
        },
        {
            "inputs": [
                {
                    "internalType": "uint256",
                    "name": "projectId",
                    "type": "uint256"
                }
            ],
            "name": "getWalletAddressByProjectId",
            "outputs": [
                {
                    "internalType": "address",
                    "name": "",
                    "type": "address"
                }
            ],
            "stateMutability": "view",
            "type": "function"
        },
        {
            "inputs": [
                {
                    "internalType": "address",
                    "name": "tokenAddress",
                    "type": "address"
                }
            ],
            "name": "isTokenSupported",
            "outputs": [
                {
                    "internalType": "bool",
                    "name": "",
                    "type": "bool"
                }
            ],
            "stateMutability": "view",
            "type": "function"
        },
        {
            "inputs": [],
            "name": "listAllProjects",
            "outputs": [
                {
                    "internalType": "string[]",
                    "name": "",
                    "type": "string[]"
                }
            ],
            "stateMutability": "view",
            "type": "function"
        },
        {
            "inputs": [],
            "name": "maxProjectCount",
            "outputs": [
                {
                    "internalType": "uint256",
                    "name": "",
                    "type": "uint256"
                }
            ],
            "stateMutability": "view",
            "type": "function"
        },
        {
            "inputs": [],
            "name": "owner",
            "outputs": [
                {
                    "internalType": "address",
                    "name": "",
                    "type": "address"
                }
            ],
            "stateMutability": "view",
            "type": "function"
        },
        {
            "inputs": [],
            "name": "pause",
            "outputs": [],
            "stateMutability": "nonpayable",
            "type": "function"
        },
        {
            "inputs": [],
            "name": "paused",
            "outputs": [
                {
                    "internalType": "bool",
                    "name": "",
                    "type": "bool"
                }
            ],
            "stateMutability": "view",
            "type": "function"
        },
        {
            "inputs": [
                {
                    "internalType": "uint256",
                    "name": "projectId",
                    "type": "uint256"
                }
            ],
            "name": "removeProject",
            "outputs": [
                {
                    "internalType": "bool",
                    "name": "",
                    "type": "bool"
                }
            ],
            "stateMutability": "nonpayable",
            "type": "function"
        },
        {
            "inputs": [
                {
                    "internalType": "address",
                    "name": "tokenAddress",
                    "type": "address"
                }
            ],
            "name": "removeSupportedToken",
            "outputs": [],
            "stateMutability": "nonpayable",
            "type": "function"
        },
        {
            "inputs": [],
            "name": "renounceOwnership",
            "outputs": [],
            "stateMutability": "nonpayable",
            "type": "function"
        },
        {
            "inputs": [],
            "name": "serviceFeeBasisPoints",
            "outputs": [
                {
                    "internalType": "uint256",
                    "name": "",
                    "type": "uint256"
                }
            ],
            "stateMutability": "view",
            "type": "function"
        },
        {
            "inputs": [
                {
                    "internalType": "uint256",
                    "name": "projectId",
                    "type": "uint256"
                },
                {
                    "internalType": "address payable",
                    "name": "projectWallet",
                    "type": "address"
                },
                {
                    "internalType": "string",
                    "name": "projectName",
                    "type": "string"
                },
                {
                    "internalType": "enum ProjectCategory",
                    "name": "category",
                    "type": "uint8"
                }
            ],
            "name": "setProject",
            "outputs": [
                {
                    "internalType": "bool",
                    "name": "",
                    "type": "bool"
                }
            ],
            "stateMutability": "nonpayable",
            "type": "function"
        },
        {
            "inputs": [
                {
                    "internalType": "uint256",
                    "name": "",
                    "type": "uint256"
                }
            ],
            "name": "supportedTokenAddresses",
            "outputs": [
                {
                    "internalType": "address",
                    "name": "",
                    "type": "address"
                }
            ],
            "stateMutability": "view",
            "type": "function"
        },
        {
            "inputs": [
                {
                    "internalType": "address",
                    "name": "newOwner",
                    "type": "address"
                }
            ],
            "name": "transferOwnership",
            "outputs": [],
            "stateMutability": "nonpayable",
            "type": "function"
        },
        {
            "inputs": [],
            "name": "unpause",
            "outputs": [],
            "stateMutability": "nonpayable",
            "type": "function"
        }
    ],
    "transactionHash": "0xffb8efd4c33aaf3432c366a1e88179ef20792efb8d73c736f8aab115039cd768",
    "args": [],
    "numDeployments": 1,
    "solcInputHash": "386a7a57553de1da07a5d73b62caa03a",
    "bytecode": "0x6080604052600a6003553480156200001657600080fd5b50620000223362000146565b6000805460ff60a01b191681556001805560408051808201909152601581527f4d65646963616c20526573706f6e73652043726577000000000000000000000060208201526200008a91907370997970c51812dc3a010c7d01b50e0d17dc79c8908262000196565b50620000df6001733c44cdddb6a900fa2b585dd299e03d12fa4293bc604051806040016040528060128152602001714372697369732052656c696566205465616d60701b81525060016200019660201b60201c565b506200013f60027390f79bf6eb2c4f870365e785982e1f101e93b9066040518060400160405280601381526020017f48756d616e6974617320696e2043656e74726f0000000000000000000000000081525060026200019660201b60201c565b506200070b565b600080546001600160a01b038381166001600160a01b0319831681178455604051919092169283917f8be0079c531659141344cd1fd0a4f28419497f9722a3daafe3b4186f6b6457e09190a35050565b6000620001a26200045a565b620001ac620004b8565b6000826005811115620001c357620001c36200050e565b10158015620001e757506005826005811115620001e457620001e46200050e565b11155b620002395760405162461bcd60e51b815260206004820152601860248201527f496e76616c69642070726f6a6563742063617465676f7279000000000000000060448201526064015b60405180910390fd5b601485106200029b5760405162461bcd60e51b815260206004820152602760248201527f496e76616c69642070726f6a656374204944206f722065786365656473206d616044820152661e081b1a5b5a5d60ca1b606482015260840162000230565b6001600160a01b038416620002f35760405162461bcd60e51b815260206004820152601660248201527f496e76616c69642077616c6c6574206164647265737300000000000000000000604482015260640162000230565b6000858152600460205260409020546001600160a01b0316156200035a5760405162461bcd60e51b815260206004820152601660248201527f50726f6a65637420616c72656164792065786973747300000000000000000000604482015260640162000230565b6040518060800160405280856001600160a01b03168152602001600081526020018481526020018360058111156200039657620003966200050e565b9052600086815260046020908152604091829020835181546001600160a01b0319166001600160a01b03909116178155908301516001820155908201516002820190620003e49082620005c9565b50606082015160038201805460ff191660018360058111156200040b576200040b6200050e565b0217905550905050847fcbb59d39d93fc819a476c1ac0008c772a7e7da9b4d24002d8f1fbacd11ab715f84846040516200044792919062000695565b60405180910390a2506001949350505050565b6000546001600160a01b03163314620004b65760405162461bcd60e51b815260206004820181905260248201527f4f776e61626c653a2063616c6c6572206973206e6f7420746865206f776e6572604482015260640162000230565b565b620004cc600054600160a01b900460ff1690565b15620004b65760405162461bcd60e51b815260206004820152601060248201526f14185d5cd8589b194e881c185d5cd95960821b604482015260640162000230565b634e487b7160e01b600052602160045260246000fd5b634e487b7160e01b600052604160045260246000fd5b600181811c908216806200054f57607f821691505b6020821081036200057057634e487b7160e01b600052602260045260246000fd5b50919050565b601f821115620005c457600081815260208120601f850160051c810160208610156200059f5750805b601f850160051c820191505b81811015620005c057828155600101620005ab565b5050505b505050565b81516001600160401b03811115620005e557620005e562000524565b620005fd81620005f684546200053a565b8462000576565b602080601f8311600181146200063557600084156200061c5750858301515b600019600386901b1c1916600185901b178555620005c0565b600085815260208120601f198616915b82811015620006665788860151825594840194600190910190840162000645565b5085821015620006855787850151600019600388901b60f8161c191681555b5050505050600190811b01905550565b604081526000835180604084015260005b81811015620006c55760208187018101516060868401015201620006a6565b506000606082850101526060601f19601f83011684010191505060068310620006fe57634e487b7160e01b600052602160045260246000fd5b8260208301529392505050565b61268e806200071b6000396000f3fe6080604052600436106101405760003560e01c806376319190116100b6578063ae531f211161006f578063ae531f211461038d578063e0040c70146103a0578063efdaca3a146103c0578063f2fde38b146103d3578063f5ec19ca146103f3578063fb46d1f81461041357600080fd5b806376319190146102f05780637ba87d1d146103105780638456cb59146103325780638da5cb5b1461034757806395e63c1f146103655780639c8efa0d1461038557600080fd5b806357629c761161010857806357629c76146101fd5780635873f998146102335780635c975abb146102635780636d69fcaf14610282578063715018a6146102a257806375151b63146102b757600080fd5b806311eb949814610145578063302aef44146101675780633c1f2692146101875780633f4ba83a146101c4578063431fbc68146101d9575b600080fd5b34801561015157600080fd5b50610165610160366004612047565b610428565b005b34801561017357600080fd5b5061016561018236600461208e565b61066d565b34801561019357600080fd5b506101a76101a23660046120bc565b610a61565b6040516001600160a01b0390911681526020015b60405180910390f35b3480156101d057600080fd5b50610165610a8b565b3480156101e557600080fd5b506101ef60035481565b6040519081526020016101bb565b34801561020957600080fd5b506101a76102183660046120bc565b6000908152600460205260409020546001600160a01b031690565b34801561023f57600080fd5b5061025361024e3660046120bc565b610a9d565b60405190151581526020016101bb565b34801561026f57600080fd5b50600054600160a01b900460ff16610253565b34801561028e57600080fd5b5061016561029d3660046120d5565b610b99565b3480156102ae57600080fd5b50610165610bed565b3480156102c357600080fd5b506102536102d23660046120d5565b6001600160a01b031660009081526005602052604090205460ff1690565b3480156102fc57600080fd5b5061016561030b3660046120d5565b610bff565b34801561031c57600080fd5b50610325610cb1565b6040516101bb919061213f565b34801561033e57600080fd5b50610165610dde565b34801561035357600080fd5b506000546001600160a01b03166101a7565b34801561037157600080fd5b506101656103803660046120bc565b610dee565b610165610e82565b61016561039b3660046120bc565b611162565b3480156103ac57600080fd5b506102536103bb3660046121b7565b6112d7565b6101656103ce366004612295565b61156c565b3480156103df57600080fd5b506101656103ee3660046120d5565b611841565b3480156103ff57600080fd5b5061016561040e3660046122b0565b6118b7565b34801561041f57600080fd5b506101ef601481565b610430611cba565b610438611d07565b60008381526004602052604090205483906001600160a01b03166104775760405162461bcd60e51b815260040161046e906122dc565b60405180910390fd5b600082116104975760405162461bcd60e51b815260040161046e9061230c565b6040516323b872dd60e01b8152336004820152306024820152604481018390526001600160a01b038416906323b872dd906064016020604051808303816000875af11580156104ea573d6000803e3d6000fd5b505050506040513d601f19601f8201168201806040525081019061050e9190612343565b61052a5760405162461bcd60e51b815260040161046e90612365565b60006103e86003548461053d91906123a4565b61054791906123c1565b9050600061055582856123e3565b9050846001600160a01b031663a9059cbb6105786000546001600160a01b031690565b6040516001600160e01b031960e084901b1681526001600160a01b039091166004820152602481018590526044016020604051808303816000875af11580156105c5573d6000803e3d6000fd5b505050506040513d601f19601f820116820180604052508101906105e99190612343565b506000868152600460205260408120600101805483929061060b9084906123f6565b90915550506040518481526001600160a01b03861690879033907f97d319113b2ce7d82aae43b2d3c2fabeb3b791fb4247d04a6e6070a023ecd39a9060200160405180910390a461065c8686611d60565b50505061066860018055565b505050565b610675611cba565b61067d611d07565b6000811161069d5760405162461bcd60e51b815260040161046e90612409565b6040516323b872dd60e01b8152336004820152306024820152604481018290526001600160a01b038316906323b872dd906064016020604051808303816000875af11580156106f0573d6000803e3d6000fd5b505050506040513d601f19601f820116820180604052508101906107149190612343565b6107305760405162461bcd60e51b815260040161046e90612365565b60006103e86003548361074391906123a4565b61074d91906123c1565b9050600061075b82846123e3565b9050836001600160a01b031663a9059cbb61077e6000546001600160a01b031690565b6040516001600160e01b031960e084901b1681526001600160a01b039091166004820152602481018590526044016020604051808303816000875af11580156107cb573d6000803e3d6000fd5b505050506040513d601f19601f820116820180604052508101906107ef9190612343565b506040805160148082526102a082019092526000918291906020820161028080368337019050509050600080805b60148110156108a4578960058111156108385761083861244f565b60008281526004602052604090206003015460ff16600581111561085e5761085e61244f565b03610892578091508084848151811061087957610879612465565b60209081029190910101528261088e8161247b565b9350505b8061089c8161247b565b91505061081d565b50600082116108c55760405162461bcd60e51b815260040161046e90612494565b60006108d183876123c1565b905060005b838110156109cf5760008582815181106108f2576108f2612465565b602090810291909101810151600081815260049283905260409081902054905163a9059cbb60e01b81526001600160a01b0391821693810193909352602483018690529092508c169063a9059cbb906044016020604051808303816000875af1158015610963573d6000803e3d6000fd5b505050506040513d601f19601f820116820180604052508101906109879190612343565b50600081815260046020526040812060010180548592906109a99084906123f6565b909155506109b9905083886123f6565b96505080806109c79061247b565b9150506108d6565b5060006109dc86886123e3565b90508015610a50576000838152600460205260408082205490516001600160a01b039091169183156108fc02918491818181858888f19350505050158015610a28573d6000803e3d6000fd5b5060008381526004602052604081206001018054839290610a4a9084906123f6565b90915550505b505050505050505061066860018055565b60028181548110610a7157600080fd5b6000918252602090912001546001600160a01b0316905081565b610a93611dfa565b610a9b611e54565b565b6000610aa7611dfa565b610aaf611cba565b60148210610af45760405162461bcd60e51b8152602060048201526012602482015271125b9d985b1a59081c1c9bda9958dd08125160721b604482015260640161046e565b6000828152600460205260409020546001600160a01b0316610b285760405162461bcd60e51b815260040161046e906122dc565b600082815260046020526040812080546001600160a01b03191681556001810182905590610b596002830182611fe4565b50600301805460ff1916905560405182907ff2dfaaf7cda21b1f727a5a4a1fe71effc75b3db77ed8865fc73784110fab385d90600090a25060015b919050565b610ba1611dfa565b6001600160a01b038116600081815260056020526040808220805460ff19166001179055517f784c8f4dbf0ffedd6e72c76501c545a70f8b203b30a26ce542bf92ba87c248a49190a250565b610bf5611dfa565b610a9b6000611ea9565b610c07611dfa565b6001600160a01b03811660009081526005602052604090205460ff16610c685760405162461bcd60e51b8152602060048201526016602482015275151bdad95b881a5cc81b9bdd081cdd5c1c1bdc9d195960521b604482015260640161046e565b6001600160a01b038116600081815260056020526040808220805460ff19169055517f4c910b69fe65a61f7531b9c5042b2329ca7179c77290aa7e2eb3afa3c8511fd39190a250565b6040805160148082526102a0820190925260609160009190816020015b6060815260200190600190039081610cce57905050905060005b6014811015610dd8576000818152600460205260409020546001600160a01b031615610dc65760008181526004602052604090206002018054610d2a906124d6565b80601f0160208091040260200160405190810160405280929190818152602001828054610d56906124d6565b8015610da35780601f10610d7857610100808354040283529160200191610da3565b820191906000526020600020905b815481529060010190602001808311610d8657829003601f168201915b5050505050828281518110610dba57610dba612465565b60200260200101819052505b80610dd08161247b565b915050610ce8565b50919050565b610de6611dfa565b610a9b611ef9565b610df6611dfa565b6014811115610e475760405162461bcd60e51b815260206004820152601d60248201527f466565206d757374206265206265747765656e20302520616e64203225000000604482015260640161046e565b60038190556040518181527f4dc24192f1e3b2f0bf4155c33d33d4219c12a37bc1f74927a75953f2a01eccba9060200160405180910390a150565b610e8a611cba565b610e92611d07565b60003411610eb25760405162461bcd60e51b815260040161046e9061230c565b60006103e860035434610ec591906123a4565b610ecf91906123c1565b90506000610edd82346123e3565b9050610ef16000546001600160a01b031690565b6001600160a01b03166108fc839081150290604051600060405180830381858888f19350505050158015610f29573d6000803e3d6000fd5b506040805160148082526102a082019092526000918291906020820161028080368337019050509050600080805b6014811015610fbe576000818152600460205260409020546001600160a01b031615610fac5780915080848481518110610f9357610f93612465565b602090810291909101015282610fa88161247b565b9350505b80610fb68161247b565b915050610f57565b506000821161100a5760405162461bcd60e51b81526020600482015260186024820152774e6f2070726f6a6563747320746f20646f6e61746520746f60401b604482015260640161046e565b600061101683876123c1565b905060005b838110156110d057600085828151811061103757611037612465565b6020908102919091018101516000818152600490925260408083205490519193506001600160a01b03169185156108fc02918691818181858888f19350505050158015611088573d6000803e3d6000fd5b50600081815260046020526040812060010180548592906110aa9084906123f6565b909155506110ba905083886123f6565b96505080806110c89061247b565b91505061101b565b5060006110dd86886123e3565b90508015611151576000838152600460205260408082205490516001600160a01b039091169183156108fc02918491818181858888f19350505050158015611129573d6000803e3d6000fd5b506000838152600460205260408120600101805483929061114b9084906123f6565b90915550505b5050505050505050610a9b60018055565b61116a611cba565b611172611d07565b60008181526004602052604090205481906001600160a01b03166111a85760405162461bcd60e51b815260040161046e906122dc565b600034116111c85760405162461bcd60e51b815260040161046e9061230c565b60006103e8600354346111db91906123a4565b6111e591906123c1565b905060006111f382346123e3565b90506112076000546001600160a01b031690565b6001600160a01b03166108fc839081150290604051600060405180830381858888f1935050505015801561123f573d6000803e3d6000fd5b50600084815260046020526040812060010180548392906112619084906123f6565b9091555050604051849033907fdfc64b8a2e4f0d5be90c383157204c42cd9bce6c7f27ab27be130ae5dff943d4906112b7903481526040602082018190526003908201526244464960e81b606082015260800190565b60405180910390a36112c884611f3c565b5050506112d460018055565b50565b60006112e1611dfa565b6112e9611cba565b60008260058111156112fd576112fd61244f565b1015801561131d5750600582600581111561131a5761131a61244f565b11155b6113695760405162461bcd60e51b815260206004820152601860248201527f496e76616c69642070726f6a6563742063617465676f72790000000000000000604482015260640161046e565b601485106113c95760405162461bcd60e51b815260206004820152602760248201527f496e76616c69642070726f6a656374204944206f722065786365656473206d616044820152661e081b1a5b5a5d60ca1b606482015260840161046e565b6001600160a01b0384166114185760405162461bcd60e51b8152602060048201526016602482015275496e76616c69642077616c6c6574206164647265737360501b604482015260640161046e565b6000858152600460205260409020546001600160a01b0316156114765760405162461bcd60e51b815260206004820152601660248201527550726f6a65637420616c72656164792065786973747360501b604482015260640161046e565b6040518060800160405280856001600160a01b03168152602001600081526020018481526020018360058111156114af576114af61244f565b9052600086815260046020908152604091829020835181546001600160a01b0319166001600160a01b039091161781559083015160018201559082015160028201906114fb9082612558565b50606082015160038201805460ff1916600183600581111561151f5761151f61244f565b0217905550905050847fcbb59d39d93fc819a476c1ac0008c772a7e7da9b4d24002d8f1fbacd11ab715f8484604051611559929190612618565b60405180910390a2506001949350505050565b611574611cba565b61157c611d07565b6000341161159c5760405162461bcd60e51b815260040161046e9061230c565b60006103e8600354346115af91906123a4565b6115b991906123c1565b905060006115c782346123e3565b90506115db6000546001600160a01b031690565b6001600160a01b03166108fc839081150290604051600060405180830381858888f19350505050158015611613573d6000803e3d6000fd5b506040805160148082526102a082019092526000918291906020820161028080368337019050509050600080805b60148110156116c85787600581111561165c5761165c61244f565b60008281526004602052604090206003015460ff1660058111156116825761168261244f565b036116b6578091508084848151811061169d5761169d612465565b6020908102919091010152826116b28161247b565b9350505b806116c08161247b565b915050611641565b50600082116116e95760405162461bcd60e51b815260040161046e90612494565b60006116f583876123c1565b905060005b838110156117af57600085828151811061171657611716612465565b6020908102919091018101516000818152600490925260408083205490519193506001600160a01b03169185156108fc02918691818181858888f19350505050158015611767573d6000803e3d6000fd5b50600081815260046020526040812060010180548592906117899084906123f6565b90915550611799905083886123f6565b96505080806117a79061247b565b9150506116fa565b5060006117bc86886123e3565b90508015611830576000838152600460205260408082205490516001600160a01b039091169183156108fc02918491818181858888f19350505050158015611808573d6000803e3d6000fd5b506000838152600460205260408120600101805483929061182a9084906123f6565b90915550505b50505050505050506112d460018055565b611849611dfa565b6001600160a01b0381166118ae5760405162461bcd60e51b815260206004820152602660248201527f4f776e61626c653a206e6577206f776e657220697320746865207a65726f206160448201526564647265737360d01b606482015260840161046e565b6112d481611ea9565b6118bf611cba565b6118c7611d07565b600081116118e75760405162461bcd60e51b815260040161046e90612409565b6040516323b872dd60e01b8152336004820152306024820152604481018290526001600160a01b038316906323b872dd906064016020604051808303816000875af115801561193a573d6000803e3d6000fd5b505050506040513d601f19601f8201168201806040525081019061195e9190612343565b61197a5760405162461bcd60e51b815260040161046e90612365565b60006103e86003548361198d91906123a4565b61199791906123c1565b905060006119a582846123e3565b9050836001600160a01b031663a9059cbb6119c86000546001600160a01b031690565b6040516001600160e01b031960e084901b1681526001600160a01b039091166004820152602481018590526044016020604051808303816000875af1158015611a15573d6000803e3d6000fd5b505050506040513d601f19601f82011682018060405250810190611a399190612343565b506040805160148082526102a082019092526000918291906020820161028080368337019050509050600080805b6014811015611ace576000818152600460205260409020546001600160a01b031615611abc5780915080848481518110611aa357611aa3612465565b602090810291909101015282611ab88161247b565b9350505b80611ac68161247b565b915050611a67565b5060008211611b1a5760405162461bcd60e51b81526020600482015260186024820152774e6f2070726f6a6563747320746f20646f6e61746520746f60401b604482015260640161046e565b6000611b2683876123c1565b905060005b83811015611c24576000858281518110611b4757611b47612465565b602090810291909101810151600081815260049283905260409081902054905163a9059cbb60e01b81526001600160a01b0391821693810193909352602483018690529092508c169063a9059cbb906044016020604051808303816000875af1158015611bb8573d6000803e3d6000fd5b505050506040513d601f19601f82011682018060405250810190611bdc9190612343565b5060008181526004602052604081206001018054859290611bfe9084906123f6565b90915550611c0e905083886123f6565b9650508080611c1c9061247b565b915050611b2b565b506000611c3186886123e3565b90508015611ca5576000838152600460205260408082205490516001600160a01b039091169183156108fc02918491818181858888f19350505050158015611c7d573d6000803e3d6000fd5b5060008381526004602052604081206001018054839290611c9f9084906123f6565b90915550505b5050505050505050611cb660018055565b5050565b600054600160a01b900460ff1615610a9b5760405162461bcd60e51b815260206004820152601060248201526f14185d5cd8589b194e881c185d5cd95960821b604482015260640161046e565b600260015403611d595760405162461bcd60e51b815260206004820152601f60248201527f5265656e7472616e637947756172643a207265656e7472616e742063616c6c00604482015260640161046e565b6002600155565b60008281526004602081905260408083206001810180549490558054915163a9059cbb60e01b81526001600160a01b03928316938101939093526024830184905292919084169063a9059cbb906044016020604051808303816000875af1158015611dcf573d6000803e3d6000fd5b505050506040513d601f19601f82011682018060405250810190611df39190612343565b5050505050565b6000546001600160a01b03163314610a9b5760405162461bcd60e51b815260206004820181905260248201527f4f776e61626c653a2063616c6c6572206973206e6f7420746865206f776e6572604482015260640161046e565b611e5c611f94565b6000805460ff60a01b191690557f5db9ee0a495bf2e6ff9c91a7834c1ba4fdd244a5e8aa4e537bd38aeae4b073aa335b6040516001600160a01b03909116815260200160405180910390a1565b600080546001600160a01b038381166001600160a01b0319831681178455604051919092169283917f8be0079c531659141344cd1fd0a4f28419497f9722a3daafe3b4186f6b6457e09190a35050565b611f01611cba565b6000805460ff60a01b1916600160a01b1790557f62e78cea01bee320cd4e420270b5ea74000d11b0c9f74754ebdbfc544b05a258611e8c3390565b6000818152600460205260408082206001810180549084905581549251919390926001600160a01b03169183156108fc0291849190818181858888f19350505050158015611f8e573d6000803e3d6000fd5b50505050565b600054600160a01b900460ff16610a9b5760405162461bcd60e51b815260206004820152601460248201527314185d5cd8589b194e881b9bdd081c185d5cd95960621b604482015260640161046e565b508054611ff0906124d6565b6000825580601f10612000575050565b601f0160209004906000526020600020908101906112d491905b8082111561202e576000815560010161201a565b5090565b6001600160a01b03811681146112d457600080fd5b60008060006060848603121561205c57600080fd5b83359250602084013561206e81612032565b929592945050506040919091013590565b803560068110610b9457600080fd5b6000806000606084860312156120a357600080fd5b6120ac8461207f565b9250602084013561206e81612032565b6000602082840312156120ce57600080fd5b5035919050565b6000602082840312156120e757600080fd5b81356120f281612032565b9392505050565b6000815180845260005b8181101561211f57602081850181015186830182015201612103565b506000602082860101526020601f19601f83011685010191505092915050565b6000602080830181845280855180835260408601915060408160051b870101925083870160005b8281101561219457603f198886030184526121828583516120f9565b94509285019290850190600101612166565b5092979650505050505050565b634e487b7160e01b600052604160045260246000fd5b600080600080608085870312156121cd57600080fd5b8435935060208501356121df81612032565b9250604085013567ffffffffffffffff808211156121fc57600080fd5b818701915087601f83011261221057600080fd5b813581811115612222576122226121a1565b604051601f8201601f19908116603f0116810190838211818310171561224a5761224a6121a1565b816040528281528a602084870101111561226357600080fd5b82602086016020830137600060208483010152809650505050505061228a6060860161207f565b905092959194509250565b6000602082840312156122a757600080fd5b6120f28261207f565b600080604083850312156122c357600080fd5b82356122ce81612032565b946020939093013593505050565b602080825260169082015275141c9bda9958dd08191bd95cc81b9bdd08195e1a5cdd60521b604082015260600190565b6020808252601f908201527f446f6e6174696f6e206d7573742062652067726561746572207468616e203000604082015260600190565b60006020828403121561235557600080fd5b815180151581146120f257600080fd5b6020808252600f908201526e151c985b9cd9995c8819985a5b1959608a1b604082015260600190565b634e487b7160e01b600052601160045260246000fd5b80820281158282048414176123bb576123bb61238e565b92915050565b6000826123de57634e487b7160e01b600052601260045260246000fd5b500490565b818103818111156123bb576123bb61238e565b808201808211156123bb576123bb61238e565b60208082526026908201527f446f6e6174696f6e20616d6f756e74206d75737420626520677265617465722060408201526507468616e20360d41b606082015260800190565b634e487b7160e01b600052602160045260246000fd5b634e487b7160e01b600052603260045260246000fd5b60006001820161248d5761248d61238e565b5060010190565b60208082526022908201527f4e6f2070726f6a6563747320666f756e6420696e20746869732063617465676f604082015261727960f01b606082015260800190565b600181811c908216806124ea57607f821691505b602082108103610dd857634e487b7160e01b600052602260045260246000fd5b601f82111561066857600081815260208120601f850160051c810160208610156125315750805b601f850160051c820191505b818110156125505782815560010161253d565b505050505050565b815167ffffffffffffffff811115612572576125726121a1565b6125868161258084546124d6565b8461250a565b602080601f8311600181146125bb57600084156125a35750858301515b600019600386901b1c1916600185901b178555612550565b600085815260208120601f198616915b828110156125ea578886015182559484019460019091019084016125cb565b50858210156126085787850151600019600388901b60f8161c191681555b5050505050600190811b01905550565b60408152600061262b60408301856120f9565b90506006831061264b57634e487b7160e01b600052602160045260246000fd5b826020830152939250505056fea2646970667358221220c8479af431ef44108f2f2a5ab766394d90eeda2e890a65e6848807a85a52553364736f6c63430008110033",
    "devdoc": {
        "kind": "dev",
        "methods": {
            "owner()": {
                "details": "Returns the address of the current owner."
            },
            "paused()": {
                "details": "Returns true if the contract is paused, and false otherwise."
            },
            "renounceOwnership()": {
                "details": "Leaves the contract without owner. It will not be possible to call `onlyOwner` functions. Can only be called by the current owner. NOTE: Renouncing ownership will leave the contract without an owner, thereby disabling any functionality that is only available to the owner."
            },
            "transferOwnership(address)": {
                "details": "Transfers ownership of the contract to a new account (`newOwner`). Can only be called by the current owner."
            }
        },
        "version": 1
    },
    "userdoc": {
        "kind": "user",
        "methods": {},
        "version": 1
    },
    "storageLayout": {
        "storage": [
            {
                "astId": 7,
                "contract": "contracts/MantaCare_DonationHub.sol:MantaCare_DonationHub",
                "label": "_owner",
                "offset": 0,
                "slot": "0",
                "type": "t_address"
            },
            {
                "astId": 130,
                "contract": "contracts/MantaCare_DonationHub.sol:MantaCare_DonationHub",
                "label": "_paused",
                "offset": 20,
                "slot": "0",
                "type": "t_bool"
            },
            {
                "astId": 231,
                "contract": "contracts/MantaCare_DonationHub.sol:MantaCare_DonationHub",
                "label": "_status",
                "offset": 0,
                "slot": "1",
                "type": "t_uint256"
            },
            {
                "astId": 1165,
                "contract": "contracts/MantaCare_DonationHub.sol:MantaCare_DonationHub",
                "label": "supportedTokenAddresses",
                "offset": 0,
                "slot": "2",
                "type": "t_array(t_address)dyn_storage"
            },
            {
                "astId": 1168,
                "contract": "contracts/MantaCare_DonationHub.sol:MantaCare_DonationHub",
                "label": "serviceFeeBasisPoints",
                "offset": 0,
                "slot": "3",
                "type": "t_uint256"
            },
            {
                "astId": 1176,
                "contract": "contracts/MantaCare_DonationHub.sol:MantaCare_DonationHub",
                "label": "projects",
                "offset": 0,
                "slot": "4",
                "type": "t_mapping(t_uint256,t_struct(Project)1162_storage)"
            },
            {
                "astId": 1180,
                "contract": "contracts/MantaCare_DonationHub.sol:MantaCare_DonationHub",
                "label": "supportedTokens",
                "offset": 0,
                "slot": "5",
                "type": "t_mapping(t_address,t_bool)"
            }
        ],
        "types": {
            "t_address": {
                "encoding": "inplace",
                "label": "address",
                "numberOfBytes": "20"
            },
            "t_address_payable": {
                "encoding": "inplace",
                "label": "address payable",
                "numberOfBytes": "20"
            },
            "t_array(t_address)dyn_storage": {
                "base": "t_address",
                "encoding": "dynamic_array",
                "label": "address[]",
                "numberOfBytes": "32"
            },
            "t_bool": {
                "encoding": "inplace",
                "label": "bool",
                "numberOfBytes": "1"
            },
            "t_enum(ProjectCategory)1142": {
                "encoding": "inplace",
                "label": "enum ProjectCategory",
                "numberOfBytes": "1"
            },
            "t_mapping(t_address,t_bool)": {
                "encoding": "mapping",
                "key": "t_address",
                "label": "mapping(address => bool)",
                "numberOfBytes": "32",
                "value": "t_bool"
            },
            "t_mapping(t_uint256,t_struct(Project)1162_storage)": {
                "encoding": "mapping",
                "key": "t_uint256",
                "label": "mapping(uint256 => struct MantaCare_DonationHub.Project)",
                "numberOfBytes": "32",
                "value": "t_struct(Project)1162_storage"
            },
            "t_string_storage": {
                "encoding": "bytes",
                "label": "string",
                "numberOfBytes": "32"
            },
            "t_struct(Project)1162_storage": {
                "encoding": "inplace",
                "label": "struct MantaCare_DonationHub.Project",
                "members": [
                    {
                        "astId": 1154,
                        "contract": "contracts/MantaCare_DonationHub.sol:MantaCare_DonationHub",
                        "label": "wallet",
                        "offset": 0,
                        "slot": "0",
                        "type": "t_address_payable"
                    },
                    {
                        "astId": 1156,
                        "contract": "contracts/MantaCare_DonationHub.sol:MantaCare_DonationHub",
                        "label": "pendingWithdrawals",
                        "offset": 0,
                        "slot": "1",
                        "type": "t_uint256"
                    },
                    {
                        "astId": 1158,
                        "contract": "contracts/MantaCare_DonationHub.sol:MantaCare_DonationHub",
                        "label": "name",
                        "offset": 0,
                        "slot": "2",
                        "type": "t_string_storage"
                    },
                    {
                        "astId": 1161,
                        "contract": "contracts/MantaCare_DonationHub.sol:MantaCare_DonationHub",
                        "label": "category",
                        "offset": 0,
                        "slot": "3",
                        "type": "t_enum(ProjectCategory)1142"
                    }
                ],
                "numberOfBytes": "128"
            },
            "t_uint256": {
                "encoding": "inplace",
                "label": "uint256",
                "numberOfBytes": "32"
            }
        }
    }
}